S0140000476C6F7665466F72446561662E737265637C
S11300000C942A000C9447000C9447000C9447006D
S11300100C9447000C9447000C9447000C94470040
S11300200C9447000C9447000C9447000C94470030
S11300300C9447000C9447000C9447000C94470020
S11300400C9447000C9447000C9447000C94470010
S11300500C94470011241FBECFE5D8E0DEBFCDBF0E
S113006012E0A0E6B0E0E0EFFEE102C005900D92E0
S1130070A03EB107D9F723E0A0EEB2E001C01D9283
S1130080A43AB207E1F70E94730B0C94760F0C9418
S11300900000823059F0833081F08130A1F487B1BF
S11300A0806487B987B18F7787B90DC087B18F7B9B
S11300B087B987B18F7787B906C087B1806487B95C
S11300C087B1806887B987B18F7D87B986B18F7D05
S11300D086B986B1877F86B986B1846086B986B1D0
S11300E0826086B986B1816086B986B1806886B936
S11300F00895803288F497B1907E97B997B1892B8F
S113010087B986B1806486B9349BFECF86B180619D
S113011086B984B195B1089580E090E00895843063
S113012008F072C0683008F06FC0423008F06CC04C
S1130130813001F130F08230B1F1833009F44CC0E8
S11301400895413059F42AB381E090E002C0880F49
S1130150991F6A95E2F7822B8ABB08952AB381E03E
S113016090E002C0880F991F6A95E2F78095822378
S11301708ABB0895413059F427B381E090E002C06E
S1130180880F991F6A95E2F7822B87BB089527B3DE
S113019081E090E002C0880F991F6A95E2F780958C
S11301A0822387BB0895413059F424B381E090E061
S11301B002C0880F991F6A95E2F7822B84BB0895C9
S11301C024B381E090E002C0880F991F6A95E2F79A
S11301D08095822384BB0895413059F421B381E092
S11301E090E002C0880F991F6A95E2F7822B81BBC9
S11301F0089521B381E090E002C0880F991F6A95A9
S1130200E2F78095822381BB0895843008F072C0A0
S1130210683008F06FC0423008F06CC0813001F1E2
S113022030F08230B1F1833009F44CC0089541308C
S113023059F42BB381E090E002C0880F991F6A95AE
S1130240E2F7822B8BBB08952BB381E090E002C0D0
S1130250880F991F6A95E2F7809582238BBB0895D6
S1130260413059F428B381E090E002C0880F991F0F
S11302706A95E2F7822B88BB089528B381E090E069
S113028002C0880F991F6A95E2F78095822388BB84
S11302900895413059F425B381E090E002C0880FFD
S11302A0991F6A95E2F7822B85BB089525B381E0F7
S11302B090E002C0880F991F6A95E2F78095822327
S11302C085BB0895413059F422B381E090E002C027
S11302D0880F991F6A95E2F7822B82BB089522B397
S11302E081E090E002C0880F991F6A95E2F780953B
S11302F0822382BB0895843070F5683070F58130B4
S113030079F028F08230A9F08330E1F028C089B375
S113031090E002C0959587956A95E2F781700895FB
S113032086B390E002C0959587956A95E2F781704F
S1130330089583B390E002C0959587956A95E2F796
S11303408170089580B390E002C0959587956A9571
S1130350E2F78170089580E0089580E0089580E0D8
S113036008950E94BC0C08951F93CF93DF93D82F58
S1130370192FC62F0E94C80C812F80650E94EB0C98
S11303808D2F0E94150D8C2F0E94150D0E94E40CD8
S11303908FE19EE40197F1F700C00000DF91CF9157
S11303A01F9108950F931F93CF93DF9361157105E8
S11303B0E1F08B01C92FD82F0E94C80CC0658C2F87
S11303C00E94EB0C8D2F0E94150D0E94D60C8C2FD1
S11303D00E94000DC8010E94210D0E94E40C8FE1CF
S11303E09EE40197F1F700C00000DF91CF911F91C7
S11303F00F9108950E944D070E946A080E94310DD2
S11304000E94B10108951F93CF93DF9310E01FC0A2
S1130410C12FD0E0FE01E95DFD4F80810E946A0793
S1130420BC0180E090E00E94590E20E030E044E3FB
S113043053E40E94B80D20E030E040EE50E40E9406
S1130440E70E0E942A0ECC56DC4F68831F5F1530DE
S1130450F8F2DF91CF911F910895CF930E94430941
S113046060E081E00E949709C0E00FC0EC2FF0E04B
S1130470EC56FC4F608170E080E090E00E94AC0993
S113048081EA91E00E945F09CF5FC33078F360E0B6
S113049082E00E949709C3E00FC0EC2FF0E0EC5615
S11304A0FC4F608170E080E090E00E94AC0981EA3A
S11304B091E00E945F09CF5FC53078F3CF91089532
S11304C040E050E04BC0FC01EC56FC4F6081FA0167
S11304D0EE0FFF1FEE0FFF1FE40FF51FE250FD4F5D
S11304E0E80FF91FA0816A1788F49A012F5F3F4F24
S11304F0F901EE0FFF1FEE0FFF1FE20FF31FE25093
S1130500FD4FE80FF91F2081621730F1A61788F418
S11305109A012F5F3F4FF901EE0FFF1FEE0FFF1FF0
S1130520E20FF31FE250FD4FE80FF91F2081261759
S113053098F07F5F753039F4CA0199230CF4019661
S1130540959587950895019603C080E090E070E04A
S1130550853091050CF4B7CF4E5F5F4F4E31510596
S1130560A4F384E30895CF93DF93843399F0C82FE1
S11305700E94430960E081E00E94970980E1C89FDE
S1130580E0011124C05ADF4FCE010E945F09CE0161
S11305900E94460DDF91CF910895CF9380E047C02C
S11305A0492F50E0FA01EC56FC4FA081282F30E08F
S11305B0F901EE0FFF1FEE0FFF1FE20FF31FE052D2
S11305C0FD4FE40FF51FC081AC1788F4B9016F5FCC
S11305D07F4FFB01EE0FFF1FEE0FFF1FE60FF71F0C
S11305E0E052FD4FE40FF51F6081A617F8F0CA171B
S11305F088F42F5F3F4FB901660F771F660F771F8F
S1130600260F371F20523D4FF901E40FF51F2081BB
S11306102A1760F0BF5FB53011F486950BC09F5F59
S113062002C090E0B0E0953008F4BACF8E5F863017
S1130630C0F384E3CF910895CF93DF938BE70E94B7
S1130640420DC0E0D0E00DC0FE01EC56FC4F6081CD
S113065070E080E090E00E945C0D8CE20E94420D0C
S11306602196C430D10584F36091980370E080E052
S113067090E00E945C0D8DE70E94420DDF91CF91C6
S11306800895E82FF0E0EC56FC4F608170E080E0C4
S113069090E00E94590E20E030E040EE50E40E94C9
S11306A0B80D20E030E040E151E40E94E70E0E94E2
S11306B02A0E862F0895CF93DF9363E082E00E9491
S11306C09709C0E0D0E00EC08C2F0E944103682F30
S11306D070E080E090E00E94AC0981EA91E00E9421
S11306E05F092196C530D1057CF3DF91CF91089540
S11306F0CF93DF930E94430960E081E00E94970951
S113070080E591E00E945F090E9403020E945B035E
S1130710C0E0D0E00CC08C2F0E944103EC2FF0E02D
S1130720E756FC4F9081891301C0DF5FCF5FC5306E
S113073090F3D53069F40E94430960E081E00E949F
S113074097098FE591E00E945F090E9443090AC05E
S11307502FEF81EE94E0215080409040E1F700C0FB
S11307600000C8CFDF91CF9108950F931F93CF93CB
S11307708B01823011F40C541F4FC0E00BC0EC2FDE
S1130780F0E0EC56FC4F6081C8010E94B4010F5F99
S11307901F4FCF5FC53098F3CF911F910F910895EC
S11307A0CF92DF92EF92FF921F93CF93DF93CDB757
S11307B0DEB72A970FB6F894DEBF0FBECDBF6B012C
S11307C0823031F424EBC20ED11C84EB90E002C0E1
S11307D080E090E0413011F48A569F4F8C159D05BE
S11307E008F065C035E0C31AD10861C025E0FE01F8
S11307F03696DF01322F1D923A95E9F73597DF01DE
S11308001D922A95E9F710E022C0153070F47C019E
S1130810BFEFEB1AFB0A66E070E06C0F7D1F610FFF
S1130820711D0E94D201C70111C0612F70E0655093
S113083071097C012FEFE21AF20AA1E0B0E0AC0FDB
S1130840BD1F6A0F7B1F0E94D201C7011F5F1A30B0
S1130850E0F240E070E025C0242F30E0F901EC56CE
S1130860FC4F5081E6E0F0E0EC0FFD1FE20FF31FB8
S11308706081561748F4E1E0F0E0EC0FFD1FE20F51
S1130880F31FE0815E1778F0651748F4E1E0F0E0CB
S1130890EC0FFD1FE20FF31F2081251720F07F5F6F
S11308A04F5F4530C8F2753011F481E005C08C15F6
S11308B09D0508F49BCF80E02A960FB6F894DEBF1E
S11308C00FBECDBFDF91CF911F91FF90EF90DF90CE
S11308D0CF9008958F929F92AF92BF92CF92DF9262
S11308E0EF92FF920F931F93CF93DF93D82F0E9421
S11308F043098AE791E00E945F09C0E0E12CF12CF2
S1130900F1C00E944309CF30D8F089E991E00E94F8
S11309105F0989E991E00E94460D8C2E912C2FE00D
S1130920821A9108092C000CAA08BB08C501B4015D
S11309300E94AC09C501B4010E945C0D11E00DC018
S113094080E1C89F80011124005A1F4FC8010E94F2
S11309505F09C8010E94460D10E060E082E00E9439
S1130960970983EA91E00E945F099FEF2DE389E4F0
S1130970915020408040E1F700C000000DC00E946B
S113098003020E942D029FEF21EE84E0915020404B
S11309908040E1F700C0000080E00E947B078823CC
S11309A071F39FEF25EA8EE0915020408040E1F7FB
S11309B000C00000412FB7018D2F0E94D00388236F
S11309C0A1F00E94430960E081E00E94970989EA4E
S11309D091E00E945F099FEF23ED80E39150204056
S11309E08040E1F700C000008CCF0E941C03B701D7
S11309F08D2F0E94B503670195E0C90ED11C0E949A
S1130A00430960E081E00E949709CF3080F089E9D2
S1130A1091E00E945F096C2F70E06F507109072EFE
S1130A20000C880B990B0E94AC0911E009C020E16D
S1130A30C29FC0011124805A9F4F0E945F0910E099
S1130A4060E082E00E94970989EC91E00E945F09CE
S1130A508FEF9DE329E4815090402040E1F700C0EE
S1130A6000000DC00E9403020E942D028FEF91EE40
S1130A7024E0815090402040E1F700C0000080E075
S1130A800E947B07882371F38FEF95EA2EE0815053
S1130A9090402040E1F700C00000412FB6018D2FA7
S1130AA00E94D0038823A1F00E94430960E081E002
S1130AB00E94970989EA91E00E945F098FEF93ED04
S1130AC020E3815090402040E1F700C0000097CF20
S1130AD00E941C03B6018D2F0E94B5038AE0E80E24
S1130AE0F11CCF5FC23108F40CCF0E9443098FEC94
S1130AF091E00E945F096D2F70E080E090E00E9419
S1130B00AC0988ED91E00E945F099FEF29E688E136
S1130B10915020408040E1F700C0000082E00E9434
S1130B204D0982E00E944D099FEF27EA81E691502A
S1130B3020408040E1F700C000000E944309DF919B
S1130B40CF911F910F91FF90EF90DF90CF90BF90C6
S1130B50AF909F908F900895EF92FF920F931F9301
S1130B60CF937B018A01823011F40C541F4FC0E0F3
S1130B7009C0B7016C0F711DC8010E94D2010F5F3B
S1130B801F4FCF5FC530A8F3CF911F910F91FF90F6
S1130B90EF900895EF92FF920F931F93CF93DF93FB
S1130BA0082F0E94430960E081E00E94970982EEC9
S1130BB091E00E945F0910E0E12CF12C4BC01E3142
S1130BC020F1C12FD0E0CE014E97BC01660F771FF4
S1130BD0660F771F680F791F60527D4FA701802F22
S1130BE00E94AC0525E0E20EF11C6D97BE01660F74
S1130BF0771F660F771FC60FD71FBE0160527D4F48
S1130C00A701802F0E94AC0521C0C12FD0E0BE01F6
S1130C10660F771F660F771F6C0F7D1F62507D4F25
S1130C20A701802F0E94AC0585E0E80EF11C2196F7
S1130C30BE01660F771F660F771FC60FD71FBE0151
S1130C4062507D4FA701802F0E94AC0595E0E90E0C
S1130C50F11C1E5F143208F4B2CF0E9443098FECDA
S1130C6091E00E945F09602F70E080E090E00E94B4
S1130C70AC098DEE91E00E945F092FEF89E698E1BF
S1130C80215080409040E1F700C0000082E00E94C3
S1130C904D092FEF87EA91E6215080409040E1F71B
S1130CA000C000000E944309DF91CF911F910F9172
S1130CB0FF90EF900895613049F018F0623059F0D8
S1130CC008959093A3038093A20308959093A1039E
S1130CD08093A003089590939F0380939E030895A7
S1130CE08433E9F0813061F018F0823089F008959E
S1130CF0E091A203F091A303309789F00995089538
S1130D00E091A003F091A103309749F0099508956B
S1130D10E0919E03F0919F03309709F0099508959F
S1130D20FF920F931F93CF93DF93F82E0E944309F2
S1130D3060E081E00E94970986EF91E00E945F09DC
S1130D4022E0F21629F004EB10E0C0E0D0E00AC083
S1130D5008E611E0C4EBD0E005C060E0CE010E94DB
S1130D60B4012196C017D107C0F30E9443098FEC48
S1130D7091E00E945F096F2D70E080E090E00E9496
S1130D80AC0982E092E00E945F09C0E00DC082E0FD
S1130D900E944D098FEF93EC29E081509040204050
S1130DA0E1F700C00000CF5FC03188F38FEF93ED0F
S1130DB020E3815090402040E1F700C000000E94F1
S1130DC04309DF91CF911F910F91FF900895CF9325
S1130DD0DF93CBEFD1E007C0BE0162567E4FCE0158
S1130DE00E94D2012196C11582E0D807A8F3DF91B1
S1130DF0CF910895CF93DF93CBEFD1E008C0FE01EC
S1130E00E256FE4F6081CE010E94B4012196C115C5
S1130E1082E0D807A0F3DF91CF9108950F931F9339
S1130E20CF930E94430960E081E00E94970989E121
S1130E3092E00E945F090DC00E9403020E945B03BE
S1130E402FEF81EE94E0215080409040E1F700C004
S1130E50000080E00E947B07882371F30E94030254
S1130E60C0E00AC00C2F10E08C2F0E944103F8014F
S1130E70E756FC4F8083CF5FC530A0F30E94FA068B
S1130E802FEF85EA9EE0215080409040E1F700C0BA
S1130E900000CF911F910F91089540E060E080E041
S1130EA00E948F0040E064E080E00E948F0040E0F8
S1130EB065E080E00E948F0040E066E080E00E94F0
S1130EC08F0040E067E080E00E948F0081E00E9494
S1130ED0490008950E947900BC0180E090E00E94DE
S1130EE0590E20E030E040E85EE30E94E70E0E94E5
S1130EF02A0ECB010895813049F018F0823059F060
S1130F000FC060E081E00E947B01089566E083E009
S1130F100E947B01089562E083E00E947B010895B2
S1130F2080E00895813051F018F0823069F008951E
S1130F3040E060E081E00E948F00089540E066E0B8
S1130F4083E00E948F00089540E062E083E00E9405
S1130F508F00089541E063E080E00E948F000895CF
S1130F6041E063E080E00E940501089540E063E011
S1130F7080E00E9405010895813051F018F082301C
S1130F8069F0089541E062E082E00E948F000895D4
S1130F9041E067E082E00E948F00089541E063E051
S1130FA083E00E948F000895813051F018F0823060
S1130FB069F0089541E062E082E00E94050108952D
S1130FC041E067E082E00E940501089541E063E0AA
S1130FD083E00E9405010895813051F018F08230B9
S1130FE069F0089540E062E082E00E9405010895FE
S1130FF040E067E082E00E940501089540E063E07C
S113100083E00E9405010895CF93C82F40E061E07A
S113101081E00E94050140E062E081E00E94050158
S1131020C4FB442740F963E082E00E940501C5FB4C
S1131030442740F964E082E00E940501C6FB44278E
S113104040F965E082E00E9405014C2F441F4427CB
S1131050441F66E082E00E94050141E063E081E014
S11310600E9405018FE99FE00197F1F700C000009D
S113107040E063E081E00E9405014C2F417063E091
S113108082E00E940501C1FB442740F964E082E04C
S11310900E940501C2FB442740F965E082E00E94FA
S11310A00501C3FB442740F966E082E00E94050184
S11310B041E063E081E00E9405018FE99FE0019730
S11310C0F1F700C0000040E063E081E00E94050108
S11310D0CF91089541E061E081E00E948F0041E0FA
S11310E062E081E00E948F0041E063E081E00E94C1
S11310F08F0041E063E082E00E948F0041E064E001
S113110082E00E948F0041E065E082E00E948F004F
S113111041E066E082E00E948F002FE785EB91E0DA
S1131120215080409040E1F700C0000040E061E0C1
S113113081E00E94050140E062E081E00E94050137
S113114040E063E082E00E94050141E064E082E067
S11311500E94050140E065E082E00E94050140E054
S113116066E082E00E94050141E063E081E00E94C4
S113117005018FE99FE00197F1F700C0000040E00E
S113118063E081E00E94050188E20E94040890EF78
S11311909A95F1F78FE00E94040820EF2A95F1F761
S11311A081E00E9404088FE39FE10197F1F700C0FA
S11311B0000086E00E9404080895CF93C82F41E000
S11311C061E081E00E94050140E062E081E00E946C
S11311D00501C4FB442740F963E082E00E94050155
S11311E0C5FB442740F964E082E00E940501C6FB88
S11311F0442740F965E082E00E9405014C2F441F1A
S11312004427441F66E082E00E94050141E063E058
S113121081E00E9405018FE99FE00197F1F700C08A
S1131220000040E063E081E00E9405014C2F417022
S113123063E082E00E940501C1FB442740F964E0B9
S113124082E00E940501C2FB442740F965E082E088
S11312500E940501C3FB442740F966E082E00E9436
S1131260050141E063E081E00E9405018FE99FE010
S11312700197F1F700C0000040E063E081E00E94C4
S11312800501CF91089581E00E9404088FE39FE156
S11312900197F1F700C000000895813049F08230D1
S11312A069F48CE10E94040880EF8A95F1F70895AF
S11312B088E10E94040880EF8A95F1F708950F935E
S11312C01F93CF93009729F42EC00E94DD08CF5FAF
S11312D002C08C01C0E0F801EC0FF11D8081811186
S11312E0F4CFC13100F12FEF83ED90E32150804022
S11312F09040E1F700C0000010E00DC081E00E94C2
S11313004D092FEF83EC99E0215080409040E1F7A4
S113131000C000001F5F212F30E08C2F90E0409729
S1131320281739075CF3CF911F910F9108958130ED
S113133019F0823049F0089580E8860F0E9404086D
S113134080EF8A95F1F7089580EC860F0E940408D7
S113135080EF8A95F1F70895CF92DF92EF92FF9292
S11313600F931F938B019C01672B682B692B49F505
S113137080E30E94DD0845C0DC01CB01880F991F82
S1131380AA1FBB1F6C017D01CC0CDD1CEE1CFF1CD5
S1131390CC0CDD1CEE1CFF1CC80ED91EEA1EFB1E65
S11313A0C901B8012AE030E040E050E00E94540F47
S11313B06C0D7D1D8E1D9F1D022F132F242F352F85
S11313C004C061E070E080E090E0011511052105A2
S11313D0310591F62AE030E040E050E00E94540FDD
S11313E0E22EF32E042F152F80E3860F0E94DD08D2
S11313F06E2D7F2D802F912F613071058105910510
S113140049F71F910F91FF90EF90DF90CF900895CF
S113141080E00E94D40781E00E94D40782E00E9409
S1131420D407089580E00E94EC0781E00E94EC0755
S113143082E00E94EC0708950E94B0072FEF83ED2D
S113144090E3215080409040E1F700C000000E94EA
S1131450B60708950E94AA0780E00E94920781E0DF
S11314600E94920782E00E94920780E00E94BC07DB
S113147081E00E94BC0782E00E94BC0760E088E033
S11314809AE00E945B0661E082E19AE00E945B06BA
S113149062E08CE19AE00E945B060E94FA010E94DD
S11314A0E70608950E94430960E081E00E949709DD
S11314B08CE292E00E945F092FEF83ED90E32150CC
S11314C080409040E1F700C000000E940E070E9497
S11314D0430960E081E00E9497098CE392E00E9456
S11314E05F092FEF83ED90E3215080409040E1F7B6
S11314F000C000000E9443090E941D0B08950E9431
S1131500430960E081E00E9497098BE592E00E9424
S11315105F0960E082E00E94970988E692E00E94F9
S11315205F0980E00E947B0781110AC081E00E946C
S11315307B07811105C082E00E947B07882389F321
S113154080E00E947B07882361F02FEF85EA9EE00C
S1131550215080409040E1F700C000000E94820CBE
S1131560089581E00E947B07882361F02FEF85EACC
S11315709EE0215080409040E1F700C000000E94AE
S1131580520A08952FEF85EA9EE021508040904052
S1131590E1F700C000000E947F0C08950E944309F7
S11315A060E081E00E94970987E792E00E945F096A
S11315B060E082E00E94970983E892E00E945F095C
S11315C080E00E947B0781110AC081E00E947B07B2
S11315D0811105C082E00E947B07882389F380E0A3
S11315E00E947B07882361F02FEF85EA9EE021505B
S11315F080409040E1F700C000000E941D0B089558
S113160081E00E947B07882361F02FEF85EA9EE04A
S1131610215080409040E1F700C000000E947F0A02
S113162008952FEF85EA9EE0215080409040E1F735
S113163000C000000E941D0B08950E94430960E051
S113164081E00E9497098EE892E00E945F0960E0C1
S113165082E00E9497098DE992E00E945F0980E090
S11316600E947B0781110AC081E00E947B078111DF
S113167005C082E00E947B07882389F380E00E94F2
S11316807B07882361F02FEF85EA9EE0215080409C
S11316909040E1F700C000000E940B0C089581E027
S11316A00E947B07882361F02FEF85EA9EE021509A
S11316B080409040E1F700C000000E94450C08956E
S11316C02FEF85EA9EE0215080409040E1F700C072
S11316D000000E94CE0A08950E942A0A0E947803FC
S11316E00E941D0B08950E946C0B80E090E0089509
S11316F00E94430960E081E00E9497098BEA92E02E
S11317000E945F0960E082E00E94970989EB92E001
S11317100E945F0980E00E947B0781110AC081E07A
S11317200E947B07811105C082E00E947B07882309
S113173089F380E00E947B07882361F02FEF85EA1C
S11317409EE0215080409040E1F700C000000E94DC
S1131750C70B089581E00E947B07882361F02FEF77
S113176085EA9EE0215080409040E1F700C00000EF
S11317700E94E90B08952FEF85EA9EE021508040F6
S11317809040E1F700C000000E941D0B08950E94E4
S113179043090E9403020E9460020E94B30282E095
S11317A00E947B07882359F02FEF85EA9EE02150A1
S11317B080409040E1F700C000000E94780B2FEFBA
S11317C081EE94E0215080409040E1F700C0000099
S11317D0E0CF0E9443090E9403020E94CD020E94AE
S11317E0700682E00E947B07882359F02FEF85EA78
S11317F09EE0215080409040E1F700C000000E942C
S1131800780B2FEF81EE94E0215080409040E1F777
S113181000C00000E0CF0E94430960E081E00E9424
S1131820970988EC92E00E945F0980E00E947B07A0
S1131830811108C081E00E947B0782E00E947B073F
S1131840882399F380E00E947B07882379F02FEFA7
S113185085EA9EE0215080409040E1F700C00000FE
S113186081E00E94CA050E94780B089581E00E94DD
S11318707B072FEF85EA9EE0215080409040E1F7FE
S113188000C000000E941D0B08950E94430960E0FF
S113189081E00E94970984ED92E00E945F0980E054
S11318A00E947B07811108C081E00E947B0782E0CF
S11318B00E947B07882399F380E00E947B0788239A
S11318C079F02FEF85EA9EE0215080409040E1F7C7
S11318D000C0000081E00E946A040E940B0C08957D
S11318E081E00E947B072FEF85EA9EE02150804033
S11318F09040E1F700C000000E941D0B08950E9473
S1131900CE0A08950E94430960E081E00E9497098D
S113191088EC92E00E945F0980E00E947B078111BD
S113192008C081E00E947B0782E00E947B07882335
S113193099F380E00E947B07882369F02FEF85EA02
S11319409EE0215080409040E1F700C0000081E01B
S11319500E9490060EC081E00E947B072FEF85EA6B
S11319609EE0215080409040E1F700C000000E94BA
S11319707F0A0E941D0B089581B18E7F81B981B1C8
S11319808D7F81B98CE080B986B7846086BF089565
S113199086B7806286BF86B78F7786BF06B607FE96
S11319A0FDCF81B1887F8830E1F7089586B78062E2
S11319B086BF86B78F7786BF06B607FEFDCF81B197
S11319C0887F8031E1F7089586B7806186BF86B746
S11319D0806886BF0895882394F0880F83B983B103
S11319E08E7F83B986B78F7D86BF86B7806886BFB2
S11319F006B607FEFDCF81B1887F8831E1F70895EF
S1131A00882394F0880F83B983B1816083B986B742
S1131A108F7D86BF86B7806886BF06B607FEFDCF7A
S1131A2081B1887F8034E1F7089583B986B78068EF
S1131A3086BF06B607FEFDCF81B1887F8832E1F705
S1131A400895FC01892B61F096B7906896BF06B69D
S1131A5007FEFDCF91B1987F9835E1F783B180837C
S1131A6008958BB18D7F8BB987E689B98AB18B7F55
S1131A708AB986E880BD8AB188608AB98AB18061F2
S1131A808AB908958CB95D9BFECF08950F931F9377
S1131A90CF93009729F40CC0CF5F0E94420D02C07F
S1131AA08C01C0E0F801EC0FF11D80818111F4CFAD
S1131AB0CF911F910F910895CF92DF92EF92FF92F1
S1131AC00F931F938B019C01672B682B692B49F59E
S1131AD080E30E94420D45C0DC01CB01880F991FB1
S1131AE0AA1FBB1F6C017D01CC0CDD1CEE1CFF1C6E
S1131AF0CC0CDD1CEE1CFF1CC80ED91EEA1EFB1EFE
S1131B00C901B8012AE030E040E050E00E94540FDF
S1131B106C0D7D1D8E1D9F1D022F132F242F352F1D
S1131B2004C061E070E080E090E00115110521053A
S1131B30310591F62AE030E040E050E00E94540F75
S1131B40E22EF32E042F152F80E3860F0E94420D00
S1131B506E2D7F2D802F912F6130710581059105A8
S1131B6049F71F910F91FF90EF90DF90CF90089568
S1131B700E94CC0D0C94AD0E0E94A60E58F00E944B
S1131B809F0E40F029F45F3F29F00C94960E5111FA
S1131B900C94E10E0C949C0E0E94BE0E68F39923E3
S1131BA0B1F3552391F3951B550BBB27AA27621755
S1131BB07307840738F09F5F5F4F220F331F441F62
S1131BC0AA1FA9F335D00E2E3AF0E0E832D0915096
S1131BD05040E695001CCAF72BD0FE2F29D0660F83
S1131BE0771F881FBB1F261737074807AB07B0E8C6
S1131BF009F0BB0B802DBF01FF2793585F4F3AF0CC
S1131C009E3F510578F00C94960E0C94E10E5F3FC4
S1131C10E4F3983ED4F3869577956795B795F79551
S1131C209F5FC9F7880F911D9695879597F9089539
S1131C30E1E0660F771F881FBB1F621773078407D5
S1131C40BA0720F0621B730B840BBA0BEE1F88F7E4
S1131C50E09508950E94C60E88F09F5798F0B92F1A
S1131C609927B751B0F0E1F0660F771F881F991FCD
S1131C701AF0BA95C9F714C0B13091F00E94E00E81
S1131C80B1E008950C94E00E672F782F8827B85F91
S1131C9039F0B93FCCF3869577956795B395D9F725
S1131CA03EF490958095709561957F4F8F4F9F4F2F
S1131CB00895E89409C097FB3EF49095809570953B
S1131CC061957F4F8F4F9F4F9923A9F0F92F96E984
S1131CD0BB279395F695879577956795B795F111F9
S1131CE0F8CFFAF4BB0F11F460FF1BC06F5F7F4F96
S1131CF08F4F9F4F16C0882311F096E911C07723A8
S1131D0021F09EE8872F762F05C0662371F096E8B0
S1131D10862F70E060E02AF09A95660F771F881F7F
S1131D20DAF7880F9695879597F9089597F99F673D
S1131D3080E870E060E008959FEF80EC089500244F
S1131D400A941616170618060906089500240A941C
S1131D5012161306140605060895092E0394000CA2
S1131D6011F4882352F0BB0F40F4BF2B11F460FF31
S1131D7004C06F5F7F4F8F4F9F4F089557FD90585A
S1131D80440F551F59F05F3F71F04795880F97FB3B
S1131D90991F61F09F3F79F08795089512161306F5
S1131DA01406551FF2CF4695F1DF08C01616170624
S1131DB01806991FF1CF8695710561050894089559
S1131DC0E894BB2766277727CB0197F908950E94EB
S1131DD0FA0E0C94AD0E0E949F0E38F00E94A60ECF
S1131DE020F0952311F00C94960E0C949C0E112463
S1131DF00C94E10E0E94BE0E70F3959FC1F3950FF3
S1131E0050E0551F629FF001729FBB27F00DB11D7A
S1131E10639FAA27F00DB11DAA1F649F6627B00D0A
S1131E20A11D661F829F2227B00DA11D621F739FF3
S1131E30B00DA11D621F839FA00D611D221F749F01
S1131E403327A00D611D231F849F600D211D822F48
S1131E50762F6A2F11249F5750409AF0F1F088236F
S1131E604AF0EE0FFF1FBB1F661F771F881F91509C
S1131E705040A9F79E3F510580F00C94960E0C94A7
S1131E80E10E5F3FE4F3983ED4F38695779567952A
S1131E90B795F795E7959F5FC1F7FE2B880F911DC6
S1131EA09695879597F90895A1E21A2EAA1BBB1B54
S1131EB0FD010DC0AA1FBB1FEE1FFF1FA217B30712
S1131EC0E407F50720F0A21BB30BE40BF50B661F28
S1131ED0771F881F991F1A9469F7609570958095EC
S1131EE090959B01AC01BD01CF010895F894FFCFFB
S1131EF048656C6C6F0000000000000000000000EA
S1131F0053656520796F75206C61746572000000FB
S1131F104C6F766520796F750000000000000000AA
S1131F204C696B6520796F750000000000000000AB
S1131F304E6F74207375726500000000000000008D
S1131F405761746368696E6720796F7500000000DB
S1131F50416D617A696E67000000000000000000B6
S1131F6051756F746500000000000000000000005F
S1131F705175657374696F6E000000000000000005
S1131F804E6F000000000000000000000000000090
S1131F90596F750000000000000000000000000000
S1131FA04F6B000000000000000000000000000073
S1131FB0476F6F64206A6F62000000000000000039
S1131FC0566963746F72790000000000000000001D
S1131FD0456E672E4D6F73746166610000000000EA
S1131FE0456E7465722050617373776F7264005725
S1131FF0656C636F6D6520746F20536D61727447F7
S11320006C6F76652076312E3400507265737320C0
S1132010627574746F6E203020666F722063616C19
S11320206962726174696F6E00436F6E74726F6C73
S11320303A20004D696E2D3E00547279206167612B
S1132040696E3A204F7665726C61707065642070B9
S11320506F736974696F6E73004D61782D3E005023
S1132060726F66696C6520002063726561746564D3
S113207021004C6F6164696E672E2E2E00206C6FF8
S113208061646564210044656C6574696E672E2E15
S11320902E002064656C65746564207375636365E4
S11320A0737366756C6C7921004E6577205061738B
S11320B073776F72643A0000040506075072657303
S11320C073203020746F2053617665005061737300
S11320D0776F7264206368616E67656420737563EB
S11320E06365737366756C6C792100302D436C6580
S11320F06172204461746100312D4E657720506116
S11321007373776F726400302D4D61696E204D6575
S11321106E7500312D53657474696E677300302DCC
S11321204C6F61642050726F66696C6500312D4E8E
S113213065772050726F66696C6500302D53706549
S1132140656368204D6F646500312D436F6E747252
S11321506F6C204D6F646500302D50726F66696C32
S113216065203100302D50726F66696C655F3100F7
S9030000FC
